:100000000C9454000C9473000C9473000C947300C3
:100010000C9473000C9473000C9473000C94730094
:100020000C9473000C9473000C9473000C94730084
:100030000C9473000C948A020C9473000C9473005B
:100040000C9473000C9473000C9473000C94730064
:100050000C9473000C9473000C9473000C94730054
:100060000C9473000C9473000C9473000C94730044
:100070000C9473000C9473000C9473000C94730034
:100080000C9473000C9473000C947300A606AB06DA
:10009000B906CB06E206F4061107650765073907BE
:1000A0003C0765076507540711241FBECFEFD0E456
:1000B000DEBFCDBF11E0A0E0B1E0EAE9F3E100E08E
:1000C0000BBF02C007900D92A236B107D9F721E00D
:1000D000A2E6B1E001C01D92AD39B207E1F70E947E
:1000E000C8040C94CB090C940000CF93DF9300D08C
:1000F0001F92CDB7DEB789837B836A8389818A307B
:1001000031F48A819B81BC018DE00E94750080ECF6
:1001100090E0FC018081882F90E080729927892BE4
:10012000B1F386EC90E02981FC01208380E090E02F
:100130000F900F900F90DF91CF910895CF93DF93A1
:1001400000D01F92CDB7DEB789836A834B838B8142
:10015000882371F08A81282F30E081E090E002C08E
:10016000880F991F2A95E2F7982F8981892B0EC055
:100170008A81282F30E081E090E002C0880F991F2B
:100180002A95E2F7982F9095898189230F900F90F7
:100190000F90DF91CF910895CF93DF9300D0CDB72B
:1001A000DEB789836A838A81282F30E081E090E07E
:1001B00002C0880F991F2A95E2F7982F8981892319
:1001C0000F900F90DF91CF9108950F931F93CF93CE
:1001D000DF931F92CDB7DEB7198208E210E040E04E
:1001E00064E08FEF0E949E00F8018083000086E2A9
:1001F00090E0FC018081809560E00E94CC00882323
:1002000041F08981882319F481E3898302C080E069
:100210002DC186E290E0FC018081809561E00E9422
:10022000CC00882341F08981882319F484E38983F1
:1002300002C080E01BC186E290E0FC0180818095D5
:1002400062E00E94CC00882341F08981882319F460
:1002500087E3898302C080E009C186E290E0FC0167
:100260008081809563E00E94CC00882341F08981E1
:10027000882319F48AE2898302C080E0F7C008E28B
:1002800010E040E065E08FEF0E949E00F80180835F
:10029000000086E290E0FC018081809560E00E9491
:1002A000CC00882341F08981882319F482E3898373
:1002B00002C080E0DBC086E290E0FC018081809596
:1002C00061E00E94CC00882341F08981882319F4E1
:1002D00085E3898302C080E0C9C086E290E0FC012A
:1002E0008081809562E00E94CC00882341F0898162
:1002F000882319F488E3898302C080E0B7C086E2CE
:1003000090E0FC018081809563E00E94CC0088230E
:1003100041F08981882319F480E3898302C080E059
:10032000A5C008E210E040E066E08FEF0E949E006A
:10033000F8018083000086E290E0FC0180818095D6
:1003400060E00E94CC00882341F08981882319F461
:1003500083E3898302C080E089C086E290E0FC01EB
:100360008081809561E00E94CC00882341F08981E2
:10037000882319F486E3898302C080E077C086E28F
:1003800090E0FC018081809562E00E94CC0088238F
:1003900041F08981882319F489E3898302C080E0D0
:1003A00065C086E290E0FC018081809563E00E9458
:1003B000CC00882341F08981882319F483E2898362
:1003C00002C080E053C008E210E040E067E08FEF39
:1003D0000E949E00F8018083000086E290E0FC010C
:1003E0008081809560E00E94CC00882341F0898163
:1003F000882319F481E4898302C080E037C086E253
:1004000090E0FC018081809561E00E94CC0088230F
:1004100041F08981882319F482E4898302C080E055
:1004200025C086E290E0FC018081809562E00E9418
:10043000CC00882341F08981882319F483E48983DF
:1004400002C080E013C086E290E0FC0180818095CC
:1004500063E00E94CC00882341F08981882319F44D
:1004600084E4898302C080E001C089810F90DF911C
:10047000CF911F910F910895CF93DF93CDB7DEB742
:1004800081E0809362010000DF91CF910895CF93C6
:10049000DF93CDB7DEB781E890E0FC011082000069
:1004A000DF91CF910895CF93DF93CDB7DEB781E889
:1004B00090E02BE0FC01208388E890E02DE730E01D
:1004C000FC01318320838FE690E022E0FC01208351
:1004D00084E890E0FC011182108280910E019091DD
:1004E0000F01A0911001B0911101809363019093CD
:1004F0006401A0936501B09366018FE590E02FE55C
:1005000030E0F90120812068FC0120830000DF91A8
:10051000CF9108951F920F9200905F000F921124C7
:1005200000905B000F922F933F934F935F936F93D5
:100530007F938F939F93AF93BF93EF93FF93CF934B
:10054000DF93CDB7DEB78091630190916401A091F4
:100550006501B09166010197A109B109809363011A
:1005600090936401A0936501B0936601809163014B
:1005700090916401A0916501B0916601892B8A2B4D
:100580008B2B91F40E943C0280910E0190910F01FF
:10059000A0911001B09111018093630190936401C7
:1005A000A0936501B09366010000DF91CF91FF91A8
:1005B000EF91BF91AF919F918F917F916F915F91DB
:1005C0004F913F912F910F9000925B000F900092FE
:1005D0005F000F901F901895CF93DF9300D000D04D
:1005E000CDB7DEB769837A838B839C8389819A81B7
:1005F000AB81BC8180930E0190930F01A0931001F9
:10060000B093110180910E0190910F01A091100102
:10061000B09111018093630190936401A0936501EF
:10062000B093660100000F900F900F900F90DF9134
:10063000CF9108950F931F93CF93DF9300D000D0F5
:10064000CDB7DEB769837A838B839C8380916D01FC
:1006500090916E01A0916F01B09170019C01AD016C
:1006600069817A818B819C810E943708882309F4F3
:1006700077C020E030E0A90169817A818B819C817B
:100680000E943708882351F481E990E021E930E0A5
:10069000F90120812870FC01208309C081E990E0E4
:1006A00021E930E0F90120812360FC01208328E565
:1006B00039E344E75FE369817A818B819C810E9401
:1006C0003708882344F488E990E02FEF3FEFFC01DE
:1006D0003183208334C020E034E244EF56E4698162
:1006E0007A818B819C810E945909181634F488E91B
:1006F00090E0FC011182108222C008E910E020E0A5
:1007000030E040E053E469817A818B819C810E94D2
:100710005E09DC01CB019C01AD0160E074E284EF75
:100720009AE40E943C08DC01CB01BC01CD010E948F
:10073000AE08DC01CB010197F8019183808384E945
:1007400090E0FC011182108289819A81AB81BC8189
:1007500080936D0190936E01A0936F01B09370012F
:1007600000000F900F900F900F90DF91CF911F918D
:100770000F910895CF93DF93CDB7DEB780E990E076
:1007800020E4FC01208381E990E02BE0FC01208340
:1007900060E070E0CB010E941A030000DF91CF916E
:1007A0000895CF93DF93CDB7DEB780E990E0FC01E9
:1007B000108281E990E0FC0110820000DF91CF916E
:1007C0000895CF93DF9300D000D0CDB7DEB78C83F0
:1007D0008C81882F90E0880F991F880F991F885E61
:1007E0009E4FFC01808189838C81882F90E0880F47
:1007F000991F880F991F875E9E4FFC0180818A8315
:100800008C81882F90E0880F991F880F991F865E32
:100810009E4FFC0180818B838981813251F48B81D1
:10082000813239F48A81813221F480E090E0DC0168
:1008300090C08981853459F48B81843341F48A8155
:100840008F3529F484EA90EDA4EAB3E482C089816B
:10085000873459F48B81833341F48A81833229F4BC
:1008600089EE96EAAFE4B3E474C08981863459F422
:100870008B81843341F48A81833229F488EB9EEFA3
:10088000A8EBB3E466C08981843459F48B81843346
:1008900041F48A81833229F482E490E9ABE9B3E43C
:1008A00058C08981833459F48B81843341F48A811F
:1008B000833229F48AE097E9AAE8B3E44AC089813F
:1008C000833459F48B81843341F48A818F3529F440
:1008D00084EA90EDA2E8B3E43CC08981833459F402
:1008E0008B81853341F48A81833229F48EEA97E93A
:1008F000AAE0B4E42EC08981813459F48B8183331A
:1009000041F48A818F3529F480E090E0A8E5B3E4D2
:1009100020C08981813459F48B81833341F48A81E9
:10092000833229F48BE794E1A9E6B3E412C089810C
:10093000823459F48B81843341F48A818F3529F4D0
:1009400084EA90EFA6EFB3E404C080E090E0ACE569
:10095000B5E4BC01CD010F900F900F900F90DF9187
:10096000CF910895CF93DF93CDB7DEB780E290E0CB
:10097000FC0180818095DF91CF910895CF93DF9323
:10098000CDB7DEB70E94B2048078DF91CF91089591
:100990000F931F93CF93DF93CDB7DEB761970FB659
:1009A000F894DEBF0FBECDBF81E290E0FC01108263
:1009B00082E290E02FEFFC01208384E290E02FE7B9
:1009C000FC01208385E290E020E8FC01208387E29F
:1009D00090E020EFFC01208388E290E02FE0FC0112
:1009E000208388E0E9E5F1E0DE011A9601900D929E
:1009F0008A95E1F784E090E09C838B838FEF8D8371
:100A000085E090E0A0E0B0E08E839F83A887B9875F
:100A10008D818093710182E390E0A0E0B0E080934B
:100A2000720190937301A0937401B093750180914A
:100A3000720190917301A0917401B091750180933E
:100A4000760190937701A0937801B09379018BE5BB
:100A500096E090937B0180937A018D8180937C0155
:100A600085E090E0A0E0B0E080937D0190937E016E
:100A7000A0937F01B093800180917D0190917E01D0
:100A8000A0917F01B09180018093810190938201B8
:100A9000A0938301B09384018AE896E09093860145
:100AA000809385018D818093870189E190E0A0E0AA
:100AB000B0E08093880190938901A0938A01B0935C
:100AC0008B018091880190918901A0918A01B09158
:100AD0008B0180938C0190938D01A0938E01B09334
:100AE0008F018DE697E090939101809390018D8125
:100AF0008093920188EC90E0A0E0B0E080939301B5
:100B000090939401A0939501B093960180919301E5
:100B100090919401A0919501B091960180939701D5
:100B200090939801A0939901B0939A0182EB97E07A
:100B300090939C0180939B018E819F81A885B985AC
:100B4000BC01CD010E94EC020E9453020E94BA0334
:100B50001A821982A0C089819A81880F991F9E01EB
:100B60002F5F3F4F820F931F0996FC018081918177
:100B7000FC01258136814781508589819A81880FC2
:100B8000991FBE016F5F7F4F860F971F0996FC016B
:100B900080819181FC0181819281A381B481281798
:100BA00039074A075B0709F045C089819A81880F98
:100BB000991F9E012F5F3F4F820F931F0996FC01E3
:100BC0000081118189819A81880F991F9E012F5F71
:100BD0003F4F820F931F0996FC0180819181FC0198
:100BE0002185328589819A81880F991FAE014F5FD7
:100BF0005F4F840F951F0996FC0180819181FC0154
:100C00008081082E000C990BF9010995F801808369
:100C100089819A81880F991F9E012F5F3F4F820F14
:100C2000931F0996FC0180819181FC011582168237
:100C30001782108689819A81880F991F9E012F5FE4
:100C40003F4F820F931F0996FC016081718189815A
:100C50009A81880F991F9E012F5F3F4F820F931F2C
:100C60000996FC0180819181FC01258136814781B3
:100C700050858E819F81A885B985820F931FA41FFF
:100C8000B51FFB0185839683A783B08789819A81ED
:100C900001969A83898329813A818B819C812817C7
:100CA000390708F458CF0000809162018823E1F3EE
:100CB000109262014DCFCF93DF9300D0CDB7DEB756
:100CC0009A83898389819A81009719F0019731F07D
:100CD0000AC081E090E09A83898308C081E090E0B7
:100CE0009A83898303C01A821982000089819A81BC
:100CF000009741F0019709F006C00E94E50080933B
:100D0000670101C0000089819A810F900F90DF91E7
:100D1000CF910895CF93DF9300D0CDB7DEB79A83FC
:100D2000898389819A81092E000CAA0BBB0B40E0B4
:100D300050E026E030E0841B950B2817390708F4B3
:100D40007EC08A5B9F4FFC010C942E0881E090E0EE
:100D50009A8389837AC080916701833229F482E083
:100D600090E09A83898371C081E090E09A838983BF
:100D70006CC080916701833221F0809167018823E4
:100D800029F482E090E09A8389835FC083E090E059
:100D90009A8389835AC080916701833229F482E063
:100DA00090E09A83898351C080916A01882329F455
:100DB00081E090E09A83898348C084E090E09A8340
:100DC000898343C080916701833229F482E090E0F7
:100DD0009A83898337C080916701882399F585E0DC
:100DE00090E09A8389832EC080916701833229F431
:100DF00082E090E09A83898327C090916901809175
:100E00001701981728F086E090E09A8389831CC028
:100E1000809167018823C1F083E090E09A83898301
:100E200013C080916701833229F482E090E09A83B5
:100E300089830BC081E090E09A83898306C01A827F
:100E4000198203C0000001C0000089819A81092E27
:100E5000000CAA0BBB0B40E050E026E030E0841B06
:100E6000950B2817390778F1835B9F4FFC010C9491
:100E70002E08109269012AC080916901882F90E0A4
:100E80008E5E9E4FFC01908180916701981749F416
:100E9000809169018F5F8093690181E080936A018D
:100EA00015C010926A0112C08091680141E060E0B3
:100EB0000E949E008093680185E290E02091680185
:100EC000FC01208303C0000001C0000089819A81D9
:100ED0000F900F90DF91CF910895CF93DF9300D0C3
:100EE000CDB7DEB79A83898389819A81009719F0FB
:100EF000019731F00AC081E090E09A83898308C0AD
:100F000081E090E09A83898303C01A8219820000ED
:100F100089819A810097E1F0019709F01CC083E272
:100F200090E0FC018081809567E00E94CC008823DE
:100F300089F08091680140E060E00E949E0080930B
:100F4000680185E290E020916801FC01208302C0E5
:100F5000000001C0000089819A810F900F90DF91FD
:100F6000CF910895CF93DF9300D0CDB7DEB79A83AA
:100F7000898389819A818130910589F08230910538
:100F80001CF4892B39F02DC082309105B1F0039704
:100F9000F9F027C081E090E09A83898328C00E94FD
:100FA000BE04882329F082E090E09A8389831FC0E1
:100FB00081E090E09A8389831AC090916B018091BF
:100FC0005801981789F483E090E09A8389830CC0D4
:100FD0000E94BE04882351F481E090E09A838983C3
:100FE00005C01A82198203C0000001C00000898177
:100FF0009A818130910561F0823091051CF4892B32
:1010000029F125C08230910531F00397B9F01FC056
:1010100010926B011CC081E080936C0180916B0188
:101020000E94E103DC01CB01BC01CD010E941A0347
:1010300080916B018F5F80936B0109C060E070E06D
:10104000CB010E941A0310926C0101C0000089813B
:101050009A810F900F90DF91CF910895EE0FFF1FAF
:101060000024001C0BBE0790F691E02D09940E940D
:10107000E40808F481E008950E9450080C941F09C8
:101080000E94180958F00E94110940F029F45F3FAE
:1010900029F00C94080951110C9453090C940E0971
:1010A0000E94300968F39923B1F3552391F3951BFE
:1010B000550BBB27AA2762177307840738F09F5F79
:1010C0005F4F220F331F441FAA1FA9F335D00E2EE6
:1010D0003AF0E0E832D091505040E695001CCAF753
:1010E0002BD0FE2F29D0660F771F881FBB1F261716
:1010F00037074807AB07B0E809F0BB0B802DBF01ED
:10110000FF2793585F4F3AF09E3F510578F00C94BB
:1011100008090C9453095F3FE4F3983ED4F3869595
:1011200077956795B795F7959F5FC9F7880F911DDC
:101130009695879597F90895E1E0660F771F881FC8
:10114000BB1F621773078407BA0720F0621B730B7B
:10115000840BBA0BEE1F88F7E09508950E94B5083E
:101160006894B1110C94530908950E94380988F0CD
:101170009F5798F0B92F9927B751B0F0E1F0660F5B
:10118000771F881F991F1AF0BA95C9F714C0B1309C
:1011900091F00E945209B1E008950C945209672F12
:1011A000782F8827B85F39F0B93FCCF386957795CB
:1011B0006795B395D9F73EF49095809570956195B4
:1011C0007F4F8F4F9F4F0895990F0008550FAA0B1F
:1011D000E0E8FEEF16161706E807F907C0F012164A
:1011E0001306E407F50798F0621B730B840B950B4D
:1011F00039F40A2661F0232B242B252B21F40895A2
:101200000A2609F4A140A6958FEF811D811D08953E
:1012100097F99F6780E870E060E008959FEF80ECA9
:10122000089500240A94161617061806090608954C
:1012300000240A9412161306140605060895092EB2
:101240000394000C11F4882352F0BB0F40F4BF2B21
:1012500011F460FF04C06F5F7F4F8F4F9F4F089561
:1012600057FD9058440F551F59F05F3F71F0479557
:10127000880F97FB991F61F09F3F79F0879508953C
:10128000121613061406551FF2CF4695F1DF08C05B
:10129000161617061806991FF1CF86957105610578
:1012A00008940895E894BB2766277727CB0197F920
:1012B00008950E94E40808F48FEF08950E947109D0
:1012C0000C941F090E94110938F00E94180920F09F
:1012D000952311F00C9408090C940E0911240C9418
:1012E00053090E94300970F3959FC1F3950F50E0A8
:1012F000551F629FF001729FBB27F00DB11D639FC8
:10130000AA27F00DB11DAA1F649F6627B00DA11D6D
:10131000661F829F2227B00DA11D621F739FB00D13
:10132000A11D621F839FA00D611D221F749F332783
:10133000A00D611D231F849F600D211D822F762F1C
:101340006A2F11249F5750409AF0F1F088234AF0F9
:10135000EE0FFF1FBB1F661F771F881F9150504065
:10136000A9F79E3F510580F00C9408090C9453098D
:101370005F3FE4F3983ED4F3869577956795B795EC
:10138000F795E7959F5FC1F7FE2B880F911D969506
:0A139000879597F90895F894FFCFB0
:10139A0000000002000000007500000000000100CB
:1013AA00000031323334350547233300455F3400BA
:1013BA00455F340046233400442334004423340078
:1013CA00455F3400455F340043233400432334002F
:1013DA004423340044233400415F3300415F330027
:1013EA0047233300472333001071017C01870192A0
:0213FA000100F0
:00000001FF
