:100000000C9468000C9487000C9487000C94870073
:100010000C9487000C9487000C9487000C94870044
:100020000C9487000C9487000C9487000C94870034
:100030000C9487000C94F6030C9487000C948700B2
:100040000C9487000C9487000C9487000C94870014
:100050000C9487000C9487000C9487000C94870004
:100060000C9487000C9487000C9487000C948700F4
:100070000C9487000C9487000C9487000C948700E4
:100080000C9487000C9487000C94870047084C0858
:100090005A086C0883089508B20806090609DA08A8
:1000A000DD0806090609F508F409F909100A240A09
:1000B0003C0A5F0A7A0A9C0AB90AE10AD50B070BC7
:1000C0000C0BD50BD50B1A0B1F0B5F0B880BB10B51
:1000D00011241FBECFEFD0E4DEBFCDBF11E0A0E002
:1000E000B1E0EAE5FCE100E00BBF02C007900D9231
:1000F000A836B107D9F721E0A8E6B1E001C01D920A
:10010000A73BB207E1F70E9434060C942B0E0C9427
:100110000000CF93DF9300D01F92CDB7DEB7898365
:100120007B836A8389818A3031F48A819B81BC0117
:100130008DE00E94890080EC90E0FC018081882F96
:1001400090E080729927892BB1F386EC90E02981A9
:10015000FC01208380E090E00F900F900F90DF91E2
:10016000CF910895CF93DF9300D01F92CDB7DEB724
:1001700089836A834B838B81882371F08A81282F3E
:1001800030E081E090E002C0880F991F2A95E2F7E5
:10019000982F8981892B0EC08A81282F30E081E039
:1001A00090E002C0880F991F2A95E2F7982F90954A
:1001B000898189230F900F900F90DF91CF9108953F
:1001C000CF93DF9300D0CDB7DEB789836A838A816E
:1001D000282F30E081E090E002C0880F991F2A9517
:1001E000E2F7982F898189230F900F90DF91CF91AB
:1001F00008950F931F93CF93DF931F92CDB7DEB770
:10020000198208E210E040E064E08FEF0E94B20043
:10021000F8018083000086E290E0FC0180818095F7
:1002200060E00E94E000882341F08981882319F46E
:1002300081E3898302C080E02DC186E290E0FC0169
:100240008081809561E00E94E000882341F08981EF
:10025000882319F484E3898302C080E01BC186E20D
:1002600090E0FC018081809562E00E94E00088239C
:1002700041F08981882319F487E3898302C080E0F3
:1002800009C186E290E0FC018081809563E00E94D4
:10029000E000882341F08981882319F48AE2898368
:1002A00002C080E0F7C008E210E040E065E08FEFB8
:1002B0000E94B200F8018083000086E290E0FC0119
:1002C0008081809560E00E94E000882341F0898170
:1002D000882319F482E3898302C080E0DBC086E2D0
:1002E00090E0FC018081809561E00E94E00088231D
:1002F00041F08981882319F485E3898302C080E075
:10030000C9C086E290E0FC018081809562E00E9495
:10031000E000882341F08981882319F488E38983E8
:1003200002C080E0B7C086E290E0FC018081809549
:1003300063E00E94E000882341F08981882319F45A
:1003400080E3898302C080E0A5C008E210E040E0BD
:1003500066E08FEF0E94B200F8018083000086E221
:1003600090E0FC018081809560E00E94E00088239D
:1003700041F08981882319F483E3898302C080E0F6
:1003800089C086E290E0FC018081809561E00E9456
:10039000E000882341F08981882319F486E389836A
:1003A00002C080E077C086E290E0FC018081809509
:1003B00062E00E94E000882341F08981882319F4DB
:1003C00089E3898302C080E065C086E290E0FC0199
:1003D0008081809563E00E94E000882341F089815C
:1003E000882319F483E2898302C080E053C008E2C5
:1003F00010E040E067E08FEF0E94B200F8018083D8
:10040000000086E290E0FC018081809560E00E941F
:10041000E000882341F08981882319F481E48983ED
:1004200002C080E037C086E290E0FC0180818095C8
:1004300061E00E94E000882341F08981882319F45B
:1004400082E4898302C080E025C086E290E0FC015E
:100450008081809562E00E94E000882341F08981DC
:10046000882319F483E4898302C080E013C086E204
:1004700090E0FC018081809563E00E94E000882389
:1004800041F08981882319F484E4898302C080E0E3
:1004900001C089810F90DF91CF911F910F91089535
:1004A0000F931F93CF93DF9300D0CDB7DEB71982A0
:1004B0001A8208E210E040E064E08FEF0E94B20090
:1004C000F8018083000086E290E0FC018081809545
:1004D00060E00E94E000882341F08981882319F4BC
:1004E00081E3898302C080E02CC186E290E0FC01B8
:1004F0008081809561E00E94E000882341F089813D
:10050000882319F484E3898302C080E01AC186E25B
:1005100090E0FC018081809562E00E94E0008823E9
:1005200041F08981882319F487E3898302C080E040
:1005300008C186E290E0FC018081809563E00E9422
:10054000E000882311F081E08A8308E210E040E0B7
:1005500065E08FEF0E94B200F8018083000086E220
:1005600090E0FC018081809560E00E94E00088239B
:1005700041F08981882319F482E3898302C080E0F5
:10058000E0C086E290E0FC018081809561E00E94FD
:10059000E000882341F08981882319F485E3898369
:1005A00002C080E0CEC086E290E0FC0180818095B0
:1005B00062E00E94E000882341F08981882319F4D9
:1005C00088E3898302C080E0BCC086E290E0FC0141
:1005D0008081809563E00E94E000882341F089815A
:1005E000882319F480E3898302C080E0AAC008E26E
:1005F00010E040E066E08FEF0E94B200F8018083D7
:10060000000086E290E0FC018081809560E00E941D
:10061000E000882341F08981882319F483E38983EA
:1006200002C080E08EC086E290E0FC01808180956F
:1006300061E00E94E000882341F08981882319F459
:1006400086E3898302C080E07CC086E290E0FC0102
:100650008081809562E00E94E000882341F08981DA
:10066000882319F489E3898302C080E06AC086E2A6
:1006700090E0FC018081809563E00E94E000882387
:1006800041F08981882319F483E2898302C080E0E4
:1006900058C008E210E040E067E08FEF0E94B2002F
:1006A000F8018083000086E290E0FC018081809563
:1006B00060E00E94E000882341F08981882319F4DA
:1006C00081E4898302C080E03CC086E290E0FC01C6
:1006D0008081809561E00E94E000882341F089815B
:1006E000882319F482E4898302C080E02AC086E26C
:1006F00090E0FC018081809562E00E94E000882308
:1007000041F08981882319F483E4898302C080E061
:1007100018C086E290E0FC018081809563E00E9431
:10072000E000882341F08981882319F484E48983D7
:1007300002C080E006C08A81882311F0898101C04F
:100740008AE00F900F90DF91CF911F910F91089544
:10075000CF93DF93CDB7DEB781E0809368010000CF
:10076000DF91CF910895CF93DF93CDB7DEB781E8C6
:1007700090E0FC0110820000DF91CF910895CF93AB
:10078000DF93CDB7DEB781E890E02BE0FC0120835A
:1007900088E890E02DE730E0FC01318320838FE68C
:1007A00090E022E0FC01208384E890E0FC011182CB
:1007B000108280910E0190910F01A0911001B091D3
:1007C00011018093690190936A01A0936B01B0932A
:1007D0006C018FE590E02FE530E0F9012081206881
:1007E000FC0120830000DF91CF9108951F920F92AA
:1007F00000905F000F92112400905B000F922F93E6
:100800003F934F935F936F937F938F939F93AF9398
:10081000BF93EF93FF93CF93DF93CDB7DEB7809174
:10082000690190916A01A0916B01B0916C010197EF
:10083000A109B1098093690190936A01A0936B01AA
:10084000B0936C018091690190916A01A0916B0154
:10085000B0916C01892B8A2B8B2B91F40E94A803F9
:1008600080910E0190910F01A0911001B0911101A2
:100870008093690190936A01A0936B01B0936C011E
:100880000000DF91CF91FF91EF91BF91AF919F91C8
:100890008F917F916F915F914F913F912F910F9029
:1008A00000925B000F9000925F000F901F901895D0
:1008B000CF93DF9300D000D0CDB7DEB769837A83C2
:1008C0008B839C8389819A81AB81BC8180930E014B
:1008D00090930F01A0931001B093110180910E012C
:1008E00090910F01A0911001B091110180936901C5
:1008F00090936A01A0936B01B0936C0100000F907C
:100900000F900F900F90DF91CF9108950F931F9349
:10091000CF93DF9300D000D0CDB7DEB769837A8361
:100920008B839C8380917C0190917D01A0917E01BD
:10093000B0917F019C01AD0169817A818B819C819D
:100940000E945A0C882309F477C020E030E0A90106
:1009500069817A818B819C810E945A0C882351F491
:1009600081E990E021E930E0F90120812870FC0163
:10097000208309C081E990E021E930E0F90120817C
:100980002360FC01208328E539E344E75FE36981C4
:100990007A818B819C810E945A0C882344F488E9D7
:1009A00090E02FEF3FEFFC013183208334C020E043
:1009B00034E244EF56E469817A818B819C810E9404
:1009C000B90D181634F488E990E0FC011182108208
:1009D00022C008E910E020E030E040E053E4698103
:1009E0007A818B819C810E94BE0DDC01CB019C0130
:1009F000AD0160E074E284EF9AE40E945F0CDC01D8
:100A0000CB01BC01CD010E94D10CDC01CB010197CF
:100A1000F8019183808384E990E0FC0111821082C7
:100A200089819A81AB81BC8180937C0190937D0107
:100A3000A0937E01B0937F0100000F900F900F9064
:100A40000F90DF91CF911F910F910895CF93DF9376
:100A5000CDB7DEB780E990E020E4FC01208381E996
:100A600090E02BE0FC01208360E070E0CB010E946D
:100A700086040000DF91CF910895CF93DF93CDB727
:100A8000DEB780E990E0FC01108281E990E0FC0192
:100A900010820000DF91CF910895CF93DF9300D0B3
:100AA00000D0CDB7DEB78C838C81882F90E0880F83
:100AB000991F880F991F885E9E4FFC018081898352
:100AC0008C81882F90E0880F991F880F991F875E6F
:100AD0009E4FFC0180818A838C81882F90E0880F53
:100AE000991F880F991F865E9E4FFC0180818B8322
:100AF0008981813251F48B81813239F48A8181324A
:100B000021F480E090E0DC0190C08981853459F4C3
:100B10008B81843341F48A818F3529F484EA90ED06
:100B2000A4EAB3E482C08981873459F48B8183338A
:100B300041F48A81833229F489EE96EAAFE4B3E482
:100B400074C08981863459F48B81843341F48A815D
:100B5000833229F488EB9EEFA8EBB3E466C0898169
:100B6000843459F48B81843341F48A81833229F4AB
:100B700082E490E9ABE9B3E458C08981833459F445
:100B80008B81843341F48A81833229F48AE097E9A6
:100B9000AAE8B3E44AC08981833459F48B81843351
:100BA00041F48A818F3529F484EA90EDA2E8B3E418
:100BB0003CC08981833459F48B81853341F48A8127
:100BC000833229F48EEA97E9AAE0B4E42EC0898141
:100BD000813459F48B81833341F48A818F3529F430
:100BE00080E090E0A8E5B3E420C08981813459F425
:100BF0008B81833341F48A81833229F48BE794E13A
:100C0000A9E6B3E412C08981823459F48B8184331C
:100C100041F48A818F3529F484EA90EFA6EFB3E49A
:100C200004C080E090E0ACE5B5E4BC01CD010F90DC
:100C30000F900F900F90DF91CF910895CF93DF9396
:100C4000CDB7DEB780E290E0FC0180818095DF9136
:100C5000CF910895CF93DF93CDB7DEB70E941E06E4
:100C60008078DF91CF9108950F931F93CF93DF93F7
:100C7000CDB7DEB763970FB6F894DEBF0FBECDBF1A
:100C800081E290E0FC01108282E290E02FEFFC0113
:100C9000208384E290E02FE7FC01208385E290E04E
:100CA00020E8FC01208387E290E020EFFC01208314
:100CB00088E290E02FE0FC0120838AE0EEE5F1E09D
:100CC000DE011A9601900D928A95E1F785E090E099
:100CD0009C838B838FEF8D8385E090E0A0E0B0E074
:100CE0008E839F83A887B9876E817F818885998548
:100CF0000E94090DDC01CB0180935A0190935B01A6
:100D0000A0935C01B0935D018D818093800182E3AB
:100D100090E0A0E0B0E08093810190938201A093E5
:100D20008301B09384018091810190918201A0910F
:100D30008301B09184018093850190938601A093F3
:100D40008701B09388018CEF97E090938A0180939C
:100D500089018D8180938B0185E090E0A0E0B0E077
:100D600080938C0190938D01A0938E01B0938F019D
:100D700080918C0190918D01A0918E01B0918F0195
:100D80008093900190939101A0939201B09393016D
:100D90008BE298E090939501809394018D818093EC
:100DA000960189E190E0A0E0B0E0809397019093F4
:100DB0009801A0939901B0939A0180919701909125
:100DC0009801A0919901B0919A0180939B01909311
:100DD0009C01A0939D01B0939E018EE099E09093B9
:100DE000A00180939F018D818093A10188EC90E008
:100DF000A0E0B0E08093A2019093A301A093A4018E
:100E0000B093A5018091A2019091A301A091A401AA
:100E1000B091A5018093A6019093A701A093A8018A
:100E2000B093A90183E599E09093AB018093AA0167
:100E30008D818093AC0185E090E0A0E0B0E08093EC
:100E4000AD019093AE01A093AF01B093B00180913A
:100E5000AD019091AE01A091AF01B091B00180932E
:100E6000B1019093B201A093B301B093B4018FECA0
:100E700099E09093B6018093B5018E819F81A885FA
:100E8000B985BC01CD010E9458040E94BF030E9495
:100E900026051A821982A0C089819A81880F991F1C
:100EA0009E012F5F3F4F820F931F0996FC018081A7
:100EB0009181FC01258136814781508589819A8104
:100EC000880F991FBE016F5F7F4F860F971F09968E
:100ED000FC0180819181FC0181819281A381B48197
:100EE000281739074A075B0709F045C089819A81AD
:100EF000880F991F9E012F5F3F4F820F931F099606
:100F0000FC010081118189819A81880F991F9E01BE
:100F10002F5F3F4F820F931F0996FC0180819181C3
:100F2000FC012185328589819A81880F991FAE0144
:100F30004F5F5F4F840F951F0996FC01808191815F
:100F4000FC018081082E000C990BF9010995F8012C
:100F5000808389819A81880F991F9E012F5F3F4F5F
:100F6000820F931F0996FC0180819181FC011582FB
:100F700016821782108689819A81880F991F9E0197
:100F80002F5F3F4F820F931F0996FC016081718193
:100F900089819A81880F991F9E012F5F3F4F820F91
:100FA000931F0996FC0180819181FC012581368186
:100FB000478150858E819F81A885B985820F931FB7
:100FC000A41FB51FFB0185839683A783B087898102
:100FD0009A8101969A83898329813A818B819C81A8
:100FE0002817390708F458CF00008091680188233A
:100FF000E1F3109268014DCFCF93DF9300D0CDB7CE
:10100000DEB79A83898389819A81009719F00197C5
:1010100031F00AC081E090E09A83898308C081E0C2
:1010200090E09A83898303C01A8219820000898123
:101030009A81009741F0019709F006C00E94F900DB
:1010400080936D0101C0000089819A810F900F90FB
:10105000DF91CF910895CF93DF9300D0CDB7DEB766
:101060009A83898389819A81092E000CAA0BBB0B74
:1010700040E050E026E030E0841B950B281739074C
:1010800008F47EC08A5B9F4FFC010C94E40B81E066
:1010900090E09A8389837AC080916D01833229F42C
:1010A00082E090E09A83898371C081E090E09A8326
:1010B00089836CC080916D01833221F080916D0134
:1010C000882329F482E090E09A8389835FC083E0DB
:1010D00090E09A8389835AC080916D01833229F40C
:1010E00082E090E09A83898351C0809170018823C7
:1010F00029F481E090E09A83898348C084E090E0FD
:101100009A83898343C080916D01833229F482E000
:1011100090E09A83898337C080916D01882399F587
:1011200085E090E09A8389832EC080916D0183329F
:1011300029F482E090E09A83898327C090916F011F
:1011400080911701981728F086E090E09A838983B0
:101150001CC080916D018823C1F083E090E09A83E8
:10116000898313C080916D01833229F482E090E07D
:101170009A8389830BC081E090E09A83898306C0BB
:101180001A82198203C0000001C0000089819A817F
:10119000092E000CAA0BBB0B40E050E026E030E02B
:1011A000841B950B2817390778F1835B9F4FFC014F
:1011B0000C94E40B10926F012AC080916F01882F6C
:1011C00090E08E5E9E4FFC01908180916D0198179A
:1011D00049F480916F018F5F80936F0181E080936C
:1011E000700115C01092700112C080916E0141E033
:1011F00060E00E94B20080936E0185E290E0209151
:101200006E01FC01208303C0000001C00000898141
:101210009A810F900F90DF91CF910895CF93DF9334
:1012200000D0CDB7DEB79A83898389819A810097F0
:1012300019F0019731F00AC081E090E09A83898328
:1012400008C081E090E09A83898303C01A821982E2
:10125000000089819A810097E1F0019709F01CC094
:1012600083E290E0FC018081809567E00E94E000CD
:10127000882389F080916E0140E060E00E94B20016
:1012800080936E0185E290E020916E01FC01208345
:1012900002C0000001C0000089819A810F900F9068
:1012A000DF91CF910895CF93DF9300D0CDB7DEB714
:1012B0009A83898389819A818130910589F082306E
:1012C00091051CF4892B39F02DC082309105B1F0C5
:1012D0000397F9F027C081E090E09A83898328C0C2
:1012E0000E942A06882329F082E090E09A8389836D
:1012F0001FC081E090E09A8389831AC090917101A8
:1013000080915801981789F483E090E09A8389834B
:101310000CC00E942A06882351F481E090E09A8351
:10132000898305C01A82198203C0000001C0000031
:1013300089819A818130910561F0823091051CF498
:10134000892B29F125C08230910531F00397B9F03E
:101350001FC0109271011CC081E0809372018091C6
:1013600071010E944D05DC01CB01BC01CD010E9441
:101370008604809171018F5F8093710109C060E0E4
:1013800070E0CB010E9486041092720101C000003F
:1013900089819A810F900F90DF91CF910895EF92FC
:1013A000FF920F931F93CF93DF9300D000D01F9233
:1013B000CDB7DEB79D838C830E9450028B838C81D6
:1013C0009D81092E000CAA0BBB0B40E050E029E0E8
:1013D00030E0841B950B2817390708F4F7C08C5AA6
:1013E0009F4FFC010C94E40B81E090E09D838C8383
:1013F000F9C08B81882351F08B818A3021F4809150
:101400006D018A3219F48B81833229F481E090E0F6
:101410009D838C83E7C082E090E09D838C83E2C053
:101420008B818A3021F480916D018A3219F48B818D
:10143000833229F481E090E09D838C83D3C083E0E4
:1014400090E09D838C83CEC08B818A3021F4809183
:101450006D018A3219F48B81833229F481E090E0A6
:101460009D838C83B6C08B81882309F0B2C084E051
:1014700090E09D838C83ADC08B818A3021F4809174
:101480006D018A3219F48B81833229F481E090E076
:101490009D838C83A0C0909177018091590198170A
:1014A00028F085E090E09D838C8395C08B81882314
:1014B00009F491C082E090E09D838C838CC08B8185
:1014C000833229F481E090E09D838C8386C08B81F8
:1014D0008A3009F082C080916D018A3209F47DC0A2
:1014E00080916D01882309F478C086E090E09D83A7
:1014F0008C8373C08B81833229F481E090E09D83DB
:101500008C8370C080917A0190917B01803D9740DF
:101510002CF081E090E09D838C8364C08091790100
:10152000882329F481E090E09D838C835BC087E071
:1015300090E09D838C8356C08B81833229F481E0B7
:1015400090E09D838C834BC080917A0190917B01C8
:10155000803D97402CF081E090E09D838C833FC0DC
:1015600080916D018823D9F588E090E09D838C837C
:1015700036C08B81833229F481E090E09D838C8397
:1015800030C080917A0190917B01803D97402CF092
:1015900081E090E09D838C8324C0909178018091BC
:1015A0005901981728F089E090E09D838C8319C039
:1015B00080916D018823A9F086E090E09D838C8363
:1015C00010C081E090E09D838C830CC01D821C8242
:1015D00009C0000007C0000005C0000003C00000F3
:1015E00001C000008C819D81092E000CAA0BBB0B51
:1015F00040E050E029E030E0841B950B28173907C4
:1016000008F4D1C0825A9F4FFC010C94E40B109255
:10161000770110927801CAC08091770191E0980F0C
:1016200090937701882F90E08D589E4F2B81FC017D
:101630002083BCC010927B0110927A01B7C08091C8
:101640007A0190917B01092E000CAA0BBB0BBC0107
:10165000CD010E94090D7B018C0180915A0190916E
:101660005B01A0915C01B0915D019C01AD01C801DD
:10167000B7010E94EE0BDC01CB01BC01CD010E9441
:10168000D10CDC01CB0190937B0180937A01809196
:101690007801882F90E08D589E4FFC0190818091B9
:1016A0006D01981749F4809178018F5F80937801DC
:1016B00081E0809379017AC01092790177C080919E
:1016C0007A0190917B01092E000CAA0BBB0BBC0187
:1016D000CD010E94090D7B018C0180915A019091EE
:1016E0005B01A0915C01B0915D019C01AD01C8015D
:1016F000B7010E94EE0BDC01CB01BC01CD010E94C1
:10170000D10CDC01CB0190937B0180937A014EC018
:1017100080917A0190917B01092E000CAA0BBB0BE2
:10172000BC01CD010E94090D7B018C0180915A0101
:1017300090915B01A0915C01B0915D019C01AD01B4
:10174000C801B7010E94EE0BDC01CB01BC01CD0149
:101750000E94D10CDC01CB0190937B0180937A0134
:1017600025C01A82198211C089819A818D589E4F95
:10177000FC01208189819A818E5E9E4FFC0120832D
:1017800089819A8101969A83898380915901282FB2
:1017900030E089819A818217930734F3809159014F
:1017A0008093170103C0000001C000008C819D815F
:1017B0000F900F900F900F900F90DF91CF911F918E
:1017C0000F91FF90EF900895EE0FFF1F0024001C73
:1017D0000BBE0790F691E02D09945058BB27AA271D
:1017E0000E94050C0C947F0D0E94710D38F00E9430
:1017F000780D20F039F49F3F19F426F40C946E0D07
:101800000EF4E095E7FB0C94680DE92F0E94900D13
:1018100058F3BA17620773078407950720F079F425
:10182000A6F50C94B20D0EF4E0950B2EBA2FA02D58
:101830000B01B90190010C01CA01A0011124FF277D
:10184000591B99F0593F50F4503E68F11A16F04078
:10185000A22F232F342F4427585FF3CF4695379577
:101860002795A795F0405395C9F77EF41F16BA0B3C
:10187000620B730B840BBAF09150A1F0FF0FBB1FEA
:10188000661F771F881FC2F70EC0BA0F621F731F33
:10189000841F48F4879577956795B795F7959E3F90
:1018A00008F0B0CF9395880F08F09927EE0F979521
:1018B000879508950E94440D08F481E008950E94E0
:1018C000730C0C947F0D0E94780D58F00E94710DDE
:1018D00040F029F45F3F29F00C94680D51110C94ED
:1018E000B30D0C946E0D0E94900D68F39923B1F323
:1018F000552391F3951B550BBB27AA276217730736
:10190000840738F09F5F5F4F220F331F441FAA1FC9
:10191000A9F335D00E2E3AF0E0E832D09150504085
:10192000E695001CCAF72BD0FE2F29D0660F771F33
:10193000881FBB1F261737074807AB07B0E809F019
:10194000BB0B802DBF01FF2793585F4F3AF09E3F9E
:10195000510578F00C94680D0C94B30D5F3FE4F3DF
:10196000983ED4F3869577956795B795F7959F5FE1
:10197000C9F7880F911D9695879597F90895E1E02D
:10198000660F771F881FBB1F621773078407BA078C
:1019900020F0621B730B840BBA0BEE1F88F7E095E7
:1019A00008950E94D80C6894B1110C94B30D089559
:1019B0000E94980D88F09F5798F0B92F9927B7513A
:1019C000B0F0E1F0660F771F881F991F1AF0BA95E3
:1019D000C9F714C0B13091F00E94B20DB1E0089582
:1019E0000C94B20D672F782F8827B85F39F0B93F74
:1019F000CCF3869577956795B395D9F73EF4909596
:101A00008095709561957F4F8F4F9F4F0895E89413
:101A100009C097FB3EF490958095709561957F4F36
:101A20008F4F9F4F9923A9F0F92F96E9BB279395E4
:101A3000F695879577956795B795F111F8CFFAF4F4
:101A4000BB0F11F460FF1BC06F5F7F4F8F4F9F4F25
:101A500016C0882311F096E911C0772321F09EE883
:101A6000872F762F05C0662371F096E8862F70E0E9
:101A700060E02AF09A95660F771F881FDAF7880FC3
:101A80009695879597F90895990F0008550FAA0B19
:101A9000E0E8FEEF16161706E807F907C0F0121681
:101AA0001306E407F50798F0621B730B840B950B84
:101AB00039F40A2661F0232B242B252B21F40895D9
:101AC0000A2609F4A140A6958FEF811D811D089576
:101AD00097F99F6780E870E060E008959FEF80ECE1
:101AE000089500240A941616170618060906089584
:101AF00000240A9412161306140605060895092EEA
:101B00000394000C11F4882352F0BB0F40F4BF2B58
:101B100011F460FF04C06F5F7F4F8F4F9F4F089598
:101B200057FD9058440F551F59F05F3F71F047958E
:101B3000880F97FB991F61F09F3F79F08795089573
:101B4000121613061406551FF2CF4695F1DF08C092
:101B5000161617061806991FF1CF869571056105AF
:101B600008940895E894BB2766277727CB0197F957
:101B700008950E94440D08F48FEF08950E94D10D3E
:101B80000C947F0D0E94710D38F00E94780D20F0AA
:101B9000952311F00C94680D0C946E0D11240C9487
:101BA000B30D0E94900D70F3959FC1F3950F50E017
:101BB000551F629FF001729FBB27F00DB11D639FFF
:101BC000AA27F00DB11DAA1F649F6627B00DA11DA5
:101BD000661F829F2227B00DA11D621F739FB00D4B
:101BE000A11D621F839FA00D611D221F749F3327BB
:101BF000A00D611D231F849F600D211D822F762F54
:101C00006A2F11249F5750409AF0F1F088234AF030
:101C1000EE0FFF1FBB1F661F771F881F915050409C
:101C2000A9F79E3F510580F00C94680D0C94B30DFC
:101C30005F3FE4F3983ED4F3869577956795B79523
:101C4000F795E7959F5FC1F7FE2B880F911D96953D
:0A1C5000879597F90895F894FFCFE7
:101C5A0000000002000000008900000000000100EE
:101C6A00000031323334350547233300455F3400F1
:101C7A00455F3400462334004423340044233400AF
:101C8A00455F3400455F3400432334004323340066
:101C9A004423340044233400415F3300415F33005E
:101CAA00472333004723330010040000803F80019C
:081CBA008B019601A101AC01B0
:00000001FF
