:100000000C9454000C9473000C9473000C947300C3
:100010000C9473000C9473000C9473000C94730094
:100020000C9473000C9473000C9473000C94730084
:100030000C9473000C948A020C9473000C9473005B
:100040000C9473000C9473000C9473000C94730064
:100050000C9473000C9473000C9473000C94730054
:100060000C9473000C9473000C9473000C94730044
:100070000C9473000C9473000C9473000C94730034
:100080000C9473000C9473000C947300C804CD049A
:10009000DB04ED04040516053305870587055B05BC
:1000A0005E0587058705760511241FBECFEFD0E4D6
:1000B000DEBFCDBF11E0A0E0B1E0EEEBFBE000E081
:1000C0000BBF02C007900D92AE31B107D9F721E006
:1000D000AEE1B1E001C01D92A834B207E1F70E9481
:1000E0001A030C94DD050C940000CF93DF9300D02D
:1000F0001F92CDB7DEB789837B836A8389818A307B
:1001000031F48A819B81BC018DE00E94750080ECF6
:1001100090E0FC018081882F90E080729927892BE4
:10012000B1F386EC90E02981FC01208380E090E02F
:100130000F900F900F90DF91CF910895CF93DF93A1
:1001400000D01F92CDB7DEB789836A834B838B8142
:10015000882371F08A81282F30E081E090E002C08E
:10016000880F991F2A95E2F7982F8981892B0EC055
:100170008A81282F30E081E090E002C0880F991F2B
:100180002A95E2F7982F9095898189230F900F90F7
:100190000F90DF91CF910895CF93DF9300D0CDB72B
:1001A000DEB789836A838A81282F30E081E090E07E
:1001B00002C0880F991F2A95E2F7982F8981892319
:1001C0000F900F90DF91CF9108950F931F93CF93CE
:1001D000DF931F92CDB7DEB7198208E210E040E04E
:1001E00064E08FEF0E949E00F8018083000086E2A9
:1001F00090E0FC018081809560E00E94CC00882323
:1002000041F08981882319F481E3898302C080E069
:100210002DC186E290E0FC018081809561E00E9422
:10022000CC00882341F08981882319F484E38983F1
:1002300002C080E01BC186E290E0FC0180818095D5
:1002400062E00E94CC00882341F08981882319F460
:1002500087E3898302C080E009C186E290E0FC0167
:100260008081809563E00E94CC00882341F08981E1
:10027000882319F48AE2898302C080E0F7C008E28B
:1002800010E040E065E08FEF0E949E00F80180835F
:10029000000086E290E0FC018081809560E00E9491
:1002A000CC00882341F08981882319F482E3898373
:1002B00002C080E0DBC086E290E0FC018081809596
:1002C00061E00E94CC00882341F08981882319F4E1
:1002D00085E3898302C080E0C9C086E290E0FC012A
:1002E0008081809562E00E94CC00882341F0898162
:1002F000882319F488E3898302C080E0B7C086E2CE
:1003000090E0FC018081809563E00E94CC0088230E
:1003100041F08981882319F480E3898302C080E059
:10032000A5C008E210E040E066E08FEF0E949E006A
:10033000F8018083000086E290E0FC0180818095D6
:1003400060E00E94CC00882341F08981882319F461
:1003500083E3898302C080E089C086E290E0FC01EB
:100360008081809561E00E94CC00882341F08981E2
:10037000882319F486E3898302C080E077C086E28F
:1003800090E0FC018081809562E00E94CC0088238F
:1003900041F08981882319F489E3898302C080E0D0
:1003A00065C086E290E0FC018081809563E00E9458
:1003B000CC00882341F08981882319F483E2898362
:1003C00002C080E053C008E210E040E067E08FEF39
:1003D0000E949E00F8018083000086E290E0FC010C
:1003E0008081809560E00E94CC00882341F0898163
:1003F000882319F481E4898302C080E037C086E253
:1004000090E0FC018081809561E00E94CC0088230F
:1004100041F08981882319F482E4898302C080E055
:1004200025C086E290E0FC018081809562E00E9418
:10043000CC00882341F08981882319F483E48983DF
:1004400002C080E013C086E290E0FC0180818095CC
:1004500063E00E94CC00882341F08981882319F44D
:1004600084E4898302C080E001C089810F90DF911C
:10047000CF911F910F910895CF93DF93CDB7DEB742
:1004800081E080931E010000DF91CF910895CF930A
:10049000DF93CDB7DEB781E890E0FC011082000069
:1004A000DF91CF910895CF93DF93CDB7DEB781E889
:1004B00090E02BE0FC01208388E890E02DE730E01D
:1004C000FC01318320838FE690E022E0FC01208351
:1004D00084E890E0FC011182108280910E019091DD
:1004E0000F01A0911001B091110180931F01909311
:1004F0002001A0932101B09322018FE590E02FE528
:1005000030E0F90120812068FC0120830000DF91A8
:10051000CF9108951F920F9200905F000F921124C7
:1005200000905B000F922F933F934F935F936F93D5
:100530007F938F939F93AF93BF93EF93FF93CF934B
:10054000DF93CDB7DEB780911F0190912001A0917C
:100550002101B09122010197A109B10980931F01E6
:1005600090932001A0932101B093220180911F015B
:1005700090912001A0912101B0912201892B8A2B19
:100580008B2B91F40E943C0280910E0190910F01FF
:10059000A0911001B091110180931F01909320014F
:1005A000A0932101B09322010000DF91CF91FF9130
:1005B000EF91BF91AF919F918F917F916F915F91DB
:1005C0004F913F912F910F9000925B000F900092FE
:1005D0005F000F901F901895CF93DF9300D000D04D
:1005E000CDB7DEB769837A838B839C8389819A81B7
:1005F000AB81BC8180930E0190930F01A0931001F9
:10060000B093110180910E0190910F01A091100102
:10061000B091110180931F0190932001A0932101BB
:10062000B093220100000F900F900F900F90DF9178
:10063000CF9108950F931F93CF93DF93CDB7DEB77C
:100640002F970FB6F894DEBF0FBECDBF84E290E0C7
:100650002FE3FC01208385E290E020E8FC01208369
:1006600087E290E020EFFC01208388E290E02FE019
:10067000FC01208386E0E8E1F1E0DE011A960190BA
:100680000D928A95E1F783E090E09C838B838FEF56
:100690008D8385E090E0A0E0B0E08E839F83A88703
:1006A000B9878D818093270182E390E0A0E0B0E0DC
:1006B0008093280190932901A0932A01B0932B01E4
:1006C0008091280190912901A0912A01B0912B01DC
:1006D00080932C0190932D01A0932E01B0932F01B4
:1006E0008DE794E090933101809330018D81809368
:1006F000320185E090E0A0E0B0E080933301909378
:100700003401A0933501B09336018091330190916B
:100710003401A0913501B091360180933701909357
:100720003801A0933901B0933A018CEA94E0909398
:100730003C0180933B018D8180933D0189E190E0F4
:10074000A0E0B0E080933E0190933F01A093400170
:10075000B093410180913E0190913F01A0914001F1
:10076000B09141018093420190934301A0934401D1
:10077000B09345018FE895E090934701809346013F
:100780008E819F81A885B985BC01CD010E94EC02B4
:100790000E9453021A821982A0C089819A81880F0F
:1007A000991F9E012F5F3F4F820F931F0996FC01F7
:1007B00080819181FC012581368147815085898125
:1007C0009A81880F991FBE016F5F7F4F860F971F19
:1007D0000996FC0180819181FC0181819281A38134
:1007E000B481281739074A075B0709F045C089819A
:1007F0009A81880F991F9E012F5F3F4F820F931F91
:100800000996FC010081118189819A81880F991FC5
:100810009E012F5F3F4F820F931F0996FC0180813D
:100820009181FC012185328589819A81880F991FE8
:10083000AE014F5F5F4F840F951F0996FC018081C9
:100840009181FC018081082E000C990BF90109951A
:10085000F801808389819A81880F991F9E012F5FFB
:100860003F4F820F931F0996FC0180819181FC010B
:10087000158216821782108689819A81880F991FA6
:100880009E012F5F3F4F820F931F0996FC016081ED
:10089000718189819A81880F991F9E012F5F3F4F37
:1008A000820F931F0996FC0180819181FC012581B3
:1008B0003681478150858E819F81A885B985820FB9
:1008C000931FA41FB51FFB0185839683A783B08761
:1008D00089819A8101969A83898329813A818B81C2
:1008E0009C812817390708F458CF000080911E0119
:1008F0008823E1F310921E014DCFCF93DF9300D0F8
:10090000CDB7DEB79A83898389819A81009719F0E0
:10091000019731F00AC081E090E09A83898308C092
:1009200081E090E09A83898303C01A8219820000D3
:1009300089819A81009741F0019709F006C00E94D1
:10094000E5008093230101C0000089819A810F9006
:100950000F90DF91CF910895CF93DF9300D0CDB763
:10096000DEB79A83898389819A81092E000CAA0BAC
:10097000BB0B40E050E026E030E0841B950B2817CD
:10098000390708F47EC08A5B9F4FFC010C94D405A4
:1009900081E090E09A8389837AC080912301833239
:1009A00029F482E090E09A83898371C081E090E02D
:1009B0009A8389836CC080912301833221F08091D6
:1009C0002301882329F482E090E09A8389835FC021
:1009D00083E090E09A8389835AC080912301833217
:1009E00029F482E090E09A83898351C080912601A6
:1009F000882329F481E090E09A83898348C084E0C9
:100A000090E09A83898343C080912301833229F443
:100A100082E090E09A83898337C080912301882304
:100A200099F585E090E09A8389832EC08091230117
:100A3000833229F482E090E09A83898327C09091E1
:100A4000250180911701981728F086E090E09A839D
:100A500089831CC0809123018823C1F083E090E04A
:100A60009A83898313C080912301833229F482E021
:100A700090E09A8389830BC081E090E09A83898318
:100A800006C01A82198203C0000001C000008981DB
:100A90009A81092E000CAA0BBB0B40E050E026E027
:100AA00030E0841B950B2817390778F1835B9F4F43
:100AB000FC010C94D405109225012AC080912501D7
:100AC000882F90E08E5E9E4FFC01908180912301E3
:100AD000981749F4809125018F5F8093250181E06B
:100AE0008093260115C01092260112C08091240126
:100AF00041E060E00E949E008093240185E290E046
:100B000020912401FC01208303C0000001C00000EB
:100B100089819A810F900F90DF91CF910895CF93A3
:100B2000DF9300D0CDB7DEB79A83898389819A811C
:100B3000009719F0019731F00AC081E090E09A83A4
:100B4000898308C081E090E09A83898303C01A8278
:100B50001982000089819A810097E1F0019709F0DC
:100B60001CC083E290E0FC018081809567E00E94D8
:100B7000CC00882389F08091240140E060E00E944D
:100B80009E008093240185E290E020912401FC01E5
:100B9000208302C0000001C0000089819A810F906B
:100BA0000F90DF91CF910895EE0FFF1F0024001CDE
:0E0BB0000BBE0790F691E02D0994F894FFCF4C
:100BBE0000000002000000007500000000000100AF
:0E0BCE000000313233343505270132013D017C
:00000001FF
