:100000000C9446000C9465000C9465000C946500FB
:100010000C9465000C9465000C9465000C946500CC
:100020000C9465000C9465000C9465000C946500BC
:100030000C9465000C9419020C9465000C946500F6
:100040000C9465000C9465000C9465000C9465009C
:100050000C9465000C9465000C9465000C9465008C
:100060000C9465000C9465000C9465000C9465007C
:100070000C9465000C9465000C9465000C9465006C
:100080000C9465000C9465000C94650011241FBE4F
:10009000CFEFD0E4DEBFCDBF11E0A0E0B1E0E8ECEF
:1000A000F8E000E00BBF02C007900D92A231B1074B
:1000B000D9F721E0A2E1B1E001C01D92AE32B20752
:1000C000E1F70E94A9020C9462040C940000CF9303
:1000D000DF9300D01F92CDB7DEB789837B836A831D
:1000E00089818A3031F48A819B81BC018DE00E9434
:1000F000670080EC90E0FC018081882F90E08072A6
:100100009927892BB1F386EC90E02981FC012083AB
:1001100080E090E00F900F900F90DF91CF910895C5
:10012000CF93DF9300D01F92CDB7DEB789836A8368
:100130004B838B81882371F08A81282F30E081E006
:1001400090E002C0880F991F2A95E2F7982F8981C5
:10015000892B0EC08A81282F30E081E090E002C018
:10016000880F991F2A95E2F7982F90958981892306
:100170000F900F900F90DF91CF910895CF93DF9361
:1001800000D0CDB7DEB789836A838A81282F30E01B
:1001900081E090E002C0880F991F2A95E2F7982F1E
:1001A000898189230F900F90DF91CF9108950F934C
:1001B0001F93CF93DF93CDB7DEB708E210E040E0A6
:1001C00064E08FEF0E949000F8018083000086E2D7
:1001D00090E0FC018081809560E00E94BE00882351
:1001E00011F081E3D3C086E290E0FC01808180952C
:1001F00061E00E94BE00882311F084E3C7C086E25C
:1002000090E0FC018081809562E00E94BE0088231E
:1002100011F087E3BBC086E290E0FC01808180950D
:1002200063E00E94BE00882311F08AE2AFC008E2BA
:1002300010E040E065E08FEF0E949000F8018083BD
:10024000000086E290E0FC018081809560E00E94E1
:10025000BE00882311F082E399C086E290E0FC01A1
:100260008081809561E00E94BE00882311F085E3C3
:100270008DC086E290E0FC018081809562E00E9462
:10028000BE00882311F088E381C086E290E0FC0183
:100290008081809563E00E94BE00882311F080E396
:1002A00075C008E210E040E066E08FEF0E94900029
:1002B000F8018083000086E290E0FC018081809557
:1002C00060E00E94BE00882311F083E35FC086E2F5
:1002D00090E0FC018081809561E00E94BE0088234F
:1002E00011F086E353C086E290E0FC0180818095A6
:1002F00062E00E94BE00882311F089E347C086E2D5
:1003000090E0FC018081809563E00E94BE0088231C
:1003100011F083E23BC008E210E040E067E08FEFBD
:100320000E949000F8018083000086E290E0FC01CA
:100330008081809560E00E94BE00882311F081E4F6
:1003400025C086E290E0FC018081809561E00E94FA
:10035000BE00882311F082E419C086E290E0FC011F
:100360008081809562E00E94BE00882311F083E4C2
:100370000DC086E290E0FC018081809563E00E94E0
:10038000BE00882311F084E401C080E0DF91CF91AA
:100390001F910F910895CF93DF93CDB7DEB781E022
:1003A000809312010000DF91CF910895CF93DF93E6
:1003B000CDB7DEB781E890E0FC0110820000DF914C
:1003C000CF910895CF93DF93CDB7DEB781E890E06A
:1003D0002BE0FC01208388E890E02DE730E0FC0171
:1003E000318320838FE690E022E0FC01208384E8C3
:1003F00090E0FC011182108280910E0190910F011A
:10040000A0911001B09111018093130190931401F8
:10041000A0931501B09316018FE590E02FE530E031
:10042000F90120812068FC0120830000DF91CF9139
:1004300008951F920F9200905F000F921124009078
:100440005B000F922F933F934F935F936F937F9334
:100450008F939F93AF93BF93EF93FF93CF93DF93CC
:10046000CDB7DEB78091130190911401A0911501D1
:10047000B09116010197A109B109809313019093DE
:100480001401A0931501B09316018091130190916E
:100490001401A0911501B0911601892B8A2B8B2B89
:1004A00091F40E94CB0180910E0190910F01A091D7
:1004B0001001B09111018093130190931401A09346
:1004C0001501B09316010000DF91CF91FF91EF91DC
:1004D000BF91AF919F918F917F916F915F914F915C
:1004E0003F912F910F9000925B000F9000925F0060
:1004F0000F901F901895CF93DF9300D000D0CDB709
:10050000DEB769837A838B839C8389819A81AB81EF
:10051000BC8180930E0190930F01A0931001B093C2
:10052000110180910E0190910F01A0911001B091E5
:1005300011018093130190931401A0931501B093BE
:10054000160100000F900F900F900F90DF91CF9148
:1005500008950F931F93CF93DF93CDB7DEB72D97F9
:100560000FB6F894DEBF0FBECDBF84E290E02FEF50
:10057000FC01208385E290E0FC01108287E290E09C
:1005800020EFFC01208388E290E02FE0FC01208333
:1005900088E191E09B878A8783E291E09D878C8741
:1005A00082E090E09C838B838FEF8D838AE090E0E4
:1005B000A0E0B0E08E839F83A887B9878D81809368
:1005C00018018AE090E0A0E0B0E0809319019093D8
:1005D0001A01A0931B01B0931C0180911901909105
:1005E0001A01A0911B01B0911C0180931D019093F1
:1005F0001E01A0931F01B093200185EE93E090931C
:100600002201809321018D81809323018AE090E073
:10061000A0E0B0E08093240190932501A0932601EF
:10062000B09327018091240190912501A09126018A
:10063000B09127018093280190932901A0932A016A
:10064000B0932B0184E194E090932D0180932C01D1
:100650008E819F81A885B985BC01CD010E947B0256
:100660000E94E2011A821982A0C089819A81880FB2
:10067000991F9E012F5F3F4F820F931F0996FC0128
:1006800080819181FC012581368147815085898156
:100690009A81880F991FBE016F5F7F4F860F971F4A
:1006A0000996FC0180819181FC0181819281A38165
:1006B000B481281739074A075B0709F045C08981CB
:1006C0009A81880F991F9E012F5F3F4F820F931FC2
:1006D0000996FC010081118189819A81880F991FF7
:1006E0009E012F5F3F4F820F931F0996FC0180816F
:1006F0009181FC012185328589819A81880F991F1A
:10070000AE014F5F5F4F840F951F0996FC018081FA
:100710009181FC018081082E000C990BF90109954B
:10072000F801808389819A81880F991F9E012F5F2C
:100730003F4F820F931F0996FC0180819181FC013C
:10074000158216821782108689819A81880F991FD7
:100750009E012F5F3F4F820F931F0996FC0160811E
:10076000718189819A81880F991F9E012F5F3F4F68
:10077000820F931F0996FC0180819181FC012581E4
:100780003681478150858E819F81A885B985820FEA
:10079000931FA41FB51FFB0185839683A783B08792
:1007A00089819A8101969A83898329813A818B81F3
:1007B0009C812817390708F458CF00008091120156
:1007C0008823E1F3109212014DCFCF93DF9300D035
:1007D000CDB7DEB79A83898389819A81009719F012
:1007E000019731F00AC081E090E09A83898308C0C4
:1007F00081E090E09A83898303C01A821982000005
:1008000089819A81009741F0019709F006C00E9402
:10081000D7008093170101C0000089819A810F9051
:100820000F90DF91CF9108950F931F93CF93DF9394
:1008300000D0CDB7DEB79A83898389819A810097EA
:1008400019F0019731F00AC081E090E09A83898322
:1008500008C081E090E09A83898303C01A821982DC
:10086000000089819A81009719F1019709F021C050
:1008700080911701882371F405E210E083E290E093
:10088000FC018081809540E067E00E949000F801C3
:1008900080830FC005E210E083E290E0FC018081DC
:1008A000809541E067E00E949000F801808301C0DC
:1008B000000089819A810F900F90DF91CF911F9155
:0808C0000F910895F894FFCF99
:1008C80000000002000000006700000000000100B6
:0208D80000001E
:00000001FF
