:100000000C9446000C9465000C9465000C946500FB
:100010000C9465000C9465000C9465000C946500CC
:100020000C9465000C9465000C9465000C946500BC
:100030000C9465000C947C020C9465000C94650093
:100040000C9465000C9465000C9465000C9465009C
:100050000C9465000C9465000C9465000C9465008C
:100060000C9465000C9465000C9465000C9465007C
:100070000C9465000C9465000C9465000C9465006C
:100080000C9465000C9465000C94650011241FBE4F
:10009000CFEFD0E4DEBFCDBF11E0A0E0B1E0EEE7EE
:1000A000F9E000E00BBF02C007900D92A231B1074A
:1000B000D9F721E0A2E1B1E001C01D92AF32B20751
:1000C000E1F70E940C030C94BD040C940000CF9344
:1000D000DF9300D01F92CDB7DEB789837B836A831D
:1000E00089818A3031F48A819B81BC018DE00E9434
:1000F000670080EC90E0FC018081882F90E08072A6
:100100009927892BB1F386EC90E02981FC012083AB
:1001100080E090E00F900F900F90DF91CF910895C5
:10012000CF93DF9300D01F92CDB7DEB789836A8368
:100130004B838B81882371F08A81282F30E081E006
:1001400090E002C0880F991F2A95E2F7982F8981C5
:10015000892B0EC08A81282F30E081E090E002C018
:10016000880F991F2A95E2F7982F90958981892306
:100170000F900F900F90DF91CF910895CF93DF9361
:1001800000D0CDB7DEB789836A838A81282F30E01B
:1001900081E090E002C0880F991F2A95E2F7982F1E
:1001A000898189230F900F90DF91CF9108950F934C
:1001B0001F93CF93DF931F92CDB7DEB7198208E26A
:1001C00010E040E064E08FEF0E949000F80180832F
:1001D000000086E290E0FC018081809560E00E9452
:1001E000BE00882341F08981882319F481E3898343
:1001F00002C080E02DC186E290E0FC018081809504
:1002000061E00E94BE00882341F08981882319F4AF
:1002100084E3898302C080E01BC186E290E0FC0198
:100220008081809562E00E94BE00882341F0898130
:10023000882319F487E3898302C080E009C186E23C
:1002400090E0FC018081809563E00E94BE008823DD
:1002500041F08981882319F48AE2898302C080E011
:10026000F7C008E210E040E065E08FEF0E949000E8
:10027000F8018083000086E290E0FC018081809597
:1002800060E00E94BE00882341F08981882319F430
:1002900082E3898302C080E0DBC086E290E0FC015B
:1002A0008081809561E00E94BE00882341F08981B1
:1002B000882319F485E3898302C080E0C9C086E2FF
:1002C00090E0FC018081809562E00E94BE0088235E
:1002D00041F08981882319F488E3898302C080E092
:1002E000B7C086E290E0FC018081809563E00E94C7
:1002F000BE00882341F08981882319F480E3898333
:1003000002C080E0A5C008E210E040E066E08FEFA8
:100310000E949000F8018083000086E290E0FC01DA
:100320008081809560E00E94BE00882341F0898131
:10033000882319F483E3898302C080E089C086E2C0
:1003400090E0FC018081809561E00E94BE008823DE
:1003500041F08981882319F486E3898302C080E013
:1003600077C086E290E0FC018081809562E00E9487
:10037000BE00882341F08981882319F489E38983A9
:1003800002C080E065C086E290E0FC01808180953B
:1003900063E00E94BE00882341F08981882319F41C
:1003A00083E2898302C080E053C008E210E040E0AD
:1003B00067E08FEF0E949000F8018083000086E2E2
:1003C00090E0FC018081809560E00E94BE0088235F
:1003D00041F08981882319F481E4898302C080E097
:1003E00037C086E290E0FC018081809561E00E9448
:1003F000BE00882341F08981882319F482E489832F
:1004000002C080E025C086E290E0FC0180818095FA
:1004100062E00E94BE00882341F08981882319F49C
:1004200083E4898302C080E013C086E290E0FC018F
:100430008081809563E00E94BE00882341F089811D
:10044000882319F484E4898302C080E001C0898193
:100450000F90DF91CF911F910F910895CF93DF936C
:10046000CDB7DEB781E0809312010000DF91CF911C
:100470000895CF93DF93CDB7DEB781E890E0FC011C
:1004800010820000DF91CF910895CF93DF93CDB715
:10049000DEB781E890E02BE0FC01208388E890E063
:1004A0002DE730E0FC01318320838FE690E022E0ED
:1004B000FC01208384E890E0FC011182108280918D
:1004C0000E0190910F01A0911001B0911101809344
:1004D000130190931401A0931501B09316018FE5B9
:1004E00090E02FE530E0F90120812068FC012083B5
:1004F0000000DF91CF9108951F920F9200905F004E
:100500000F92112400905B000F922F933F934F9313
:100510005F936F937F938F939F93AF93BF93EF936B
:10052000FF93CF93DF93CDB7DEB780911301909106
:100530001401A0911501B09116010197A109B1090B
:100540008093130190931401A0931501B0931601A9
:100550008091130190911401A0911501B0911601A1
:10056000892B8A2B8B2B91F40E942E0280910E01F5
:1005700090910F01A0911001B0911101809313018E
:1005800090931401A0931501B09316010000DF9120
:10059000CF91FF91EF91BF91AF919F918F917F91FB
:1005A0006F915F914F913F912F910F9000925B005F
:1005B0000F9000925F000F901F901895CF93DF93DC
:1005C00000D000D0CDB7DEB769837A838B839C835C
:1005D00089819A81AB81BC8180930E0190930F0138
:1005E000A0931001B093110180910E0190910F0121
:1005F000A0911001B0911101809313019093140107
:10060000A0931501B093160100000F900F900F906A
:100610000F90DF91CF9108950F931F93CF93DF93A6
:10062000CDB7DEB72D970FB6F894DEBF0FBECDBFA6
:1006300084E290E02FEFFC01208385E290E0FC0152
:10064000108287E290E020EFFC01208388E290E0B6
:100650002FE0FC01208389E191E09B878A8784E277
:1006600091E09D878C8782E090E09C838B838FEF65
:100670008D838AE090E0A0E0B0E08E839F83A8871E
:10068000B9878D81809319018AE090E0A0E0B0E005
:1006900080931A0190931B01A0931C01B0931D013C
:1006A00080911A0190911B01A0911C01B0911D0134
:1006B00080931E0190931F01A0932001B09321010C
:1006C00088E494E090932301809322018D818093AC
:1006D00024018AE090E0A0E0B0E0809325019093AF
:1006E0002601A0932701B0932801809125019091C4
:1006F0002601A0912701B0912801809329019093B0
:100700002A01A0932B01B0932C0187E794E09093EA
:100710002E0180932D018E819F81A885B985BC0112
:10072000CD010E94DE020E9445021A821982A0C0F9
:1007300089819A81880F991F9E012F5F3F4F820FF9
:10074000931F0996FC0180819181FC0125813681EE
:100750004781508589819A81880F991FBE016F5FFB
:100760007F4F860F971F0996FC0180819181FC01C4
:1007700081819281A381B481281739074A075B07D9
:1007800009F045C089819A81880F991F9E012F5FCA
:100790003F4F820F931F0996FC01008111818981CF
:1007A0009A81880F991F9E012F5F3F4F820F931FE1
:1007B0000996FC0180819181FC0121853285898126
:1007C0009A81880F991FAE014F5F5F4F840F951F6D
:1007D0000996FC0180819181FC018081082E000C2A
:1007E000990BF9010995F801808389819A81880F15
:1007F000991F9E012F5F3F4F820F931F0996FC01A7
:1008000080819181FC011582168217821086898170
:100810009A81880F991F9E012F5F3F4F820F931F70
:100820000996FC016081718189819A81880F991FE5
:100830009E012F5F3F4F820F931F0996FC0180811D
:100840009181FC0125813681478150858E819F8170
:10085000A885B985820F931FA41FB51FFB0185834F
:100860009683A783B08789819A8101969A83898329
:1008700029813A818B819C812817390708F458CF48
:100880000000809112018823E1F3109212014DCFF4
:10089000CF93DF9300D0CDB7DEB79A838983898168
:1008A0009A81009719F0019731F00AC081E090E039
:1008B0009A83898308C081E090E09A83898303C08A
:1008C0001A821982000089819A81009741F001976C
:1008D00009F006C00E94D7008093170101C00000F4
:1008E00089819A810F900F90DF91CF910895CF93D6
:1008F000DF9300D0CDB7DEB79A83898389819A814F
:10090000009719F0019731F00AC081E090E09A83D6
:10091000898308C081E090E09A83898303C01A82AA
:100920001982000089819A810097F9F0019709F0F6
:100930001DC080911701882349F48091180140E07F
:1009400067E00E9490008093180108C08091180110
:1009500041E067E00E9490008093180185E290E0FA
:1009600020911801FC01208301C0000089819A8137
:0E0970000F900F90DF91CF910895F894FFCF74
:10097E0000000002000000006700000000000100FF
:02098E00000067
:00000001FF
